{
  "_format": "hh-sol-artifact-1",
  "contractName": "VlrStaker",
  "sourceName": "contracts/VlrStaker.sol",
  "abi": [
    {
      "inputs": [
        {
          "internalType": "address",
          "name": "_VlrContractAddress",
          "type": "address"
        },
        {
          "internalType": "address",
          "name": "_charityBagAddress",
          "type": "address"
        },
        {
          "internalType": "address",
          "name": "_mtcContractAddress",
          "type": "address"
        },
        {
          "internalType": "address",
          "name": "_pancakeRouterAddress",
          "type": "address"
        },
        {
          "internalType": "address",
          "name": "_wbnbAddress",
          "type": "address"
        },
        {
          "internalType": "address",
          "name": "_distributorAddress",
          "type": "address"
        }
      ],
      "stateMutability": "nonpayable",
      "type": "constructor"
    },
    {
      "anonymous": false,
      "inputs": [
        {
          "indexed": true,
          "internalType": "address",
          "name": "owner",
          "type": "address"
        },
        {
          "indexed": true,
          "internalType": "address",
          "name": "spender",
          "type": "address"
        },
        {
          "indexed": false,
          "internalType": "uint256",
          "name": "value",
          "type": "uint256"
        }
      ],
      "name": "Approval",
      "type": "event"
    },
    {
      "anonymous": false,
      "inputs": [
        {
          "indexed": true,
          "internalType": "address",
          "name": "from",
          "type": "address"
        },
        {
          "indexed": true,
          "internalType": "address",
          "name": "to",
          "type": "address"
        },
        {
          "indexed": false,
          "internalType": "uint256",
          "name": "value",
          "type": "uint256"
        }
      ],
      "name": "Transfer",
      "type": "event"
    },
    {
      "inputs": [
        {
          "internalType": "address",
          "name": "owner",
          "type": "address"
        },
        {
          "internalType": "address",
          "name": "spender",
          "type": "address"
        }
      ],
      "name": "allowance",
      "outputs": [
        {
          "internalType": "uint256",
          "name": "",
          "type": "uint256"
        }
      ],
      "stateMutability": "view",
      "type": "function"
    },
    {
      "inputs": [
        {
          "internalType": "address",
          "name": "spender",
          "type": "address"
        },
        {
          "internalType": "uint256",
          "name": "amount",
          "type": "uint256"
        }
      ],
      "name": "approve",
      "outputs": [
        {
          "internalType": "bool",
          "name": "",
          "type": "bool"
        }
      ],
      "stateMutability": "nonpayable",
      "type": "function"
    },
    {
      "inputs": [
        {
          "internalType": "address",
          "name": "account",
          "type": "address"
        }
      ],
      "name": "balanceOf",
      "outputs": [
        {
          "internalType": "uint256",
          "name": "",
          "type": "uint256"
        }
      ],
      "stateMutability": "view",
      "type": "function"
    },
    {
      "inputs": [],
      "name": "decimals",
      "outputs": [
        {
          "internalType": "uint8",
          "name": "",
          "type": "uint8"
        }
      ],
      "stateMutability": "view",
      "type": "function"
    },
    {
      "inputs": [
        {
          "internalType": "address",
          "name": "spender",
          "type": "address"
        },
        {
          "internalType": "uint256",
          "name": "subtractedValue",
          "type": "uint256"
        }
      ],
      "name": "decreaseAllowance",
      "outputs": [
        {
          "internalType": "bool",
          "name": "",
          "type": "bool"
        }
      ],
      "stateMutability": "nonpayable",
      "type": "function"
    },
    {
      "inputs": [
        {
          "internalType": "address[]",
          "name": "rewardTokenAddress",
          "type": "address[]"
        },
        {
          "internalType": "uint256[]",
          "name": "rewardTokenValue",
          "type": "uint256[]"
        }
      ],
      "name": "distributeRewards",
      "outputs": [],
      "stateMutability": "nonpayable",
      "type": "function"
    },
    {
      "inputs": [],
      "name": "getCharityAddress",
      "outputs": [
        {
          "internalType": "address",
          "name": "_charityBagAddress",
          "type": "address"
        }
      ],
      "stateMutability": "view",
      "type": "function"
    },
    {
      "inputs": [
        {
          "internalType": "uint256",
          "name": "stakeIndex",
          "type": "uint256"
        }
      ],
      "name": "getStake",
      "outputs": [
        {
          "components": [
            {
              "internalType": "uint256",
              "name": "startTime",
              "type": "uint256"
            },
            {
              "internalType": "uint256",
              "name": "stopTime",
              "type": "uint256"
            },
            {
              "internalType": "uint256",
              "name": "stakedTokens",
              "type": "uint256"
            },
            {
              "internalType": "address",
              "name": "ownerAddress",
              "type": "address"
            }
          ],
          "internalType": "struct VlrStaker.StakerBag",
          "name": "selectedBag",
          "type": "tuple"
        }
      ],
      "stateMutability": "view",
      "type": "function"
    },
    {
      "inputs": [
        {
          "internalType": "uint256",
          "name": "index",
          "type": "uint256"
        },
        {
          "internalType": "uint256",
          "name": "endTime",
          "type": "uint256"
        }
      ],
      "name": "getStakeValue",
      "outputs": [
        {
          "internalType": "uint256",
          "name": "bagValue",
          "type": "uint256"
        }
      ],
      "stateMutability": "view",
      "type": "function"
    },
    {
      "inputs": [],
      "name": "getStakingRewardsBag",
      "outputs": [
        {
          "internalType": "uint256",
          "name": "totalRewards",
          "type": "uint256"
        }
      ],
      "stateMutability": "view",
      "type": "function"
    },
    {
      "inputs": [],
      "name": "getTotalCharityCollected",
      "outputs": [
        {
          "internalType": "uint256",
          "name": "total",
          "type": "uint256"
        }
      ],
      "stateMutability": "view",
      "type": "function"
    },
    {
      "inputs": [
        {
          "internalType": "uint256",
          "name": "endTime",
          "type": "uint256"
        }
      ],
      "name": "getTotalStakedValue",
      "outputs": [
        {
          "internalType": "uint256",
          "name": "",
          "type": "uint256"
        }
      ],
      "stateMutability": "view",
      "type": "function"
    },
    {
      "inputs": [
        {
          "internalType": "address",
          "name": "spender",
          "type": "address"
        },
        {
          "internalType": "uint256",
          "name": "addedValue",
          "type": "uint256"
        }
      ],
      "name": "increaseAllowance",
      "outputs": [
        {
          "internalType": "bool",
          "name": "",
          "type": "bool"
        }
      ],
      "stateMutability": "nonpayable",
      "type": "function"
    },
    {
      "inputs": [],
      "name": "name",
      "outputs": [
        {
          "internalType": "string",
          "name": "",
          "type": "string"
        }
      ],
      "stateMutability": "view",
      "type": "function"
    },
    {
      "inputs": [
        {
          "internalType": "uint256",
          "name": "_stakedAmount",
          "type": "uint256"
        }
      ],
      "name": "stake",
      "outputs": [],
      "stateMutability": "nonpayable",
      "type": "function"
    },
    {
      "inputs": [
        {
          "internalType": "uint256",
          "name": "startTime",
          "type": "uint256"
        },
        {
          "internalType": "uint256",
          "name": "stopTime",
          "type": "uint256"
        },
        {
          "internalType": "uint256",
          "name": "_stakedVlrAmount",
          "type": "uint256"
        }
      ],
      "name": "stakeWithTimeParameters",
      "outputs": [
        {
          "internalType": "uint256",
          "name": "mtcFeePaid",
          "type": "uint256"
        },
        {
          "internalType": "uint256",
          "name": "charityFeePaid",
          "type": "uint256"
        },
        {
          "internalType": "uint256",
          "name": "burnFeePaid",
          "type": "uint256"
        },
        {
          "internalType": "uint256",
          "name": "stakingFeePaid",
          "type": "uint256"
        },
        {
          "internalType": "uint256",
          "name": "svlrMinted",
          "type": "uint256"
        }
      ],
      "stateMutability": "nonpayable",
      "type": "function"
    },
    {
      "inputs": [],
      "name": "symbol",
      "outputs": [
        {
          "internalType": "string",
          "name": "",
          "type": "string"
        }
      ],
      "stateMutability": "view",
      "type": "function"
    },
    {
      "inputs": [],
      "name": "totalSupply",
      "outputs": [
        {
          "internalType": "uint256",
          "name": "",
          "type": "uint256"
        }
      ],
      "stateMutability": "view",
      "type": "function"
    },
    {
      "inputs": [
        {
          "internalType": "address",
          "name": "recipient",
          "type": "address"
        },
        {
          "internalType": "uint256",
          "name": "amount",
          "type": "uint256"
        }
      ],
      "name": "transfer",
      "outputs": [
        {
          "internalType": "bool",
          "name": "",
          "type": "bool"
        }
      ],
      "stateMutability": "nonpayable",
      "type": "function"
    },
    {
      "inputs": [
        {
          "internalType": "address",
          "name": "sender",
          "type": "address"
        },
        {
          "internalType": "address",
          "name": "recipient",
          "type": "address"
        },
        {
          "internalType": "uint256",
          "name": "amount",
          "type": "uint256"
        }
      ],
      "name": "transferFrom",
      "outputs": [
        {
          "internalType": "bool",
          "name": "",
          "type": "bool"
        }
      ],
      "stateMutability": "nonpayable",
      "type": "function"
    },
    {
      "inputs": [
        {
          "internalType": "uint256",
          "name": "_unstakedAmount",
          "type": "uint256"
        }
      ],
      "name": "unstake",
      "outputs": [
        {
          "internalType": "uint256",
          "name": "mtcFeePaid",
          "type": "uint256"
        },
        {
          "internalType": "uint256",
          "name": "charityFeePaid",
          "type": "uint256"
        },
        {
          "internalType": "uint256",
          "name": "burnFeePaid",
          "type": "uint256"
        },
        {
          "internalType": "uint256",
          "name": "stakingFeePaid",
          "type": "uint256"
        },
        {
          "internalType": "uint256",
          "name": "vlrReturned",
          "type": "uint256"
        },
        {
          "internalType": "uint256",
          "name": "vlrRewardsReturned",
          "type": "uint256"
        }
      ],
      "stateMutability": "nonpayable",
      "type": "function"
    }
  ],
  "bytecode": "0x608060405261dead600d60006101000a81548173ffffffffffffffffffffffffffffffffffffffff021916908373ffffffffffffffffffffffffffffffffffffffff1602179055503480156200005457600080fd5b506040516200425a3803806200425a83398181016040528101906200007a919062000485565b6040518060400160405280601081526020017f5374616b656420564c5220546f6b656e000000000000000000000000000000008152506040518060400160405280600481526020017f53564c52000000000000000000000000000000000000000000000000000000008152508160039080519060200190620000fe929190620003be565b50806004908051906020019062000117929190620003be565b50505085600560006101000a81548173ffffffffffffffffffffffffffffffffffffffff021916908373ffffffffffffffffffffffffffffffffffffffff1602179055506000600b8190555084600860006101000a81548173ffffffffffffffffffffffffffffffffffffffff021916908373ffffffffffffffffffffffffffffffffffffffff1602179055506009869080600181540180825580915050600190039060005260206000200160009091909190916101000a81548173ffffffffffffffffffffffffffffffffffffffff021916908373ffffffffffffffffffffffffffffffffffffffff1602179055506009829080600181540180825580915050600190039060005260206000200160009091909190916101000a81548173ffffffffffffffffffffffffffffffffffffffff021916908373ffffffffffffffffffffffffffffffffffffffff1602179055506009829080600181540180825580915050600190039060005260206000200160009091909190916101000a81548173ffffffffffffffffffffffffffffffffffffffff021916908373ffffffffffffffffffffffffffffffffffffffff1602179055506009849080600181540180825580915050600190039060005260206000200160009091909190916101000a81548173ffffffffffffffffffffffffffffffffffffffff021916908373ffffffffffffffffffffffffffffffffffffffff16021790555082600660006101000a81548173ffffffffffffffffffffffffffffffffffffffff021916908373ffffffffffffffffffffffffffffffffffffffff16021790555080600a60006101000a81548173ffffffffffffffffffffffffffffffffffffffff021916908373ffffffffffffffffffffffffffffffffffffffff160217905550505050505050620005ce565b828054620003cc906200054f565b90600052602060002090601f016020900481019282620003f057600085556200043c565b82601f106200040b57805160ff19168380011785556200043c565b828001600101855582156200043c579182015b828111156200043b5782518255916020019190600101906200041e565b5b5090506200044b91906200044f565b5090565b5b808211156200046a57600081600090555060010162000450565b5090565b6000815190506200047f81620005b4565b92915050565b60008060008060008060c087890312156200049f57600080fd5b6000620004af89828a016200046e565b9650506020620004c289828a016200046e565b9550506040620004d589828a016200046e565b9450506060620004e889828a016200046e565b9350506080620004fb89828a016200046e565b92505060a06200050e89828a016200046e565b9150509295509295509295565b600062000528826200052f565b9050919050565b600073ffffffffffffffffffffffffffffffffffffffff82169050919050565b600060028204905060018216806200056857607f821691505b602082108114156200057f576200057e62000585565b5b50919050565b7f4e487b7100000000000000000000000000000000000000000000000000000000600052602260045260246000fd5b620005bf816200051b565b8114620005cb57600080fd5b50565b613c7c80620005de6000396000f3fe608060405234801561001057600080fd5b50600436106101375760003560e01c80634e1fce51116100b8578063a694fc3a1161007c578063a694fc3a1461037f578063a9059cbb1461039b578063b175a9c4146103cb578063cbad1706146103ff578063ce325bf81461042f578063dd62ed3e1461045f57610137565b80634e1fce51146102c557806370a08231146102e35780637edd7e4d1461031357806395d89b4114610331578063a457c2d71461034f57610137565b80631de9ecc0116100ff5780631de9ecc0146101e257806323b872dd146102125780632e17de7814610242578063313ce56714610277578063395093511461029557610137565b806306fdde031461013c578063095ea7b31461015a578063143ba4f31461018a57806318160ddd146101a65780631ad06393146101c4575b600080fd5b61014461048f565b6040516101519190613056565b60405180910390f35b610174600480360381019061016f9190612b63565b610521565b604051610181919061303b565b60405180910390f35b6101a4600480360381019061019f9190612b9f565b61053f565b005b6101ae6107dc565b6040516101bb9190613233565b60405180910390f35b6101cc6107e6565b6040516101d99190612fc0565b60405180910390f35b6101fc60048036038101906101f79190612c34565b610810565b6040516102099190613233565b60405180910390f35b61022c60048036038101906102279190612b14565b610a85565b604051610239919061303b565b60405180910390f35b61025c60048036038101906102579190612c34565b610b7d565b60405161026e969594939291906132a1565b60405180910390f35b61027f61105e565b60405161028c9190613302565b60405180910390f35b6102af60048036038101906102aa9190612b63565b611067565b6040516102bc919061303b565b60405180910390f35b6102cd611113565b6040516102da9190613233565b60405180910390f35b6102fd60048036038101906102f89190612aaf565b61111d565b60405161030a9190613233565b60405180910390f35b61031b611165565b6040516103289190613233565b60405180910390f35b61033961116f565b6040516103469190613056565b60405180910390f35b61036960048036038101906103649190612b63565b611201565b604051610376919061303b565b60405180910390f35b61039960048036038101906103949190612c34565b6112ec565b005b6103b560048036038101906103b09190612b63565b611300565b6040516103c2919061303b565b60405180910390f35b6103e560048036038101906103e09190612cc2565b61131e565b6040516103f695949392919061324e565b60405180910390f35b61041960048036038101906104149190612c86565b611854565b6040516104269190613233565b60405180910390f35b61044960048036038101906104449190612c34565b6119a0565b6040516104569190613218565b60405180910390f35b61047960048036038101906104749190612ad8565b611a76565b6040516104869190613233565b60405180910390f35b60606003805461049e906136c4565b80601f01602080910402602001604051908101604052809291908181526020018280546104ca906136c4565b80156105175780601f106104ec57610100808354040283529160200191610517565b820191906000526020600020905b8154815290600101906020018083116104fa57829003601f168201915b5050505050905090565b600061053561052e611afd565b8484611b05565b6001905092915050565b600a60009054906101000a900473ffffffffffffffffffffffffffffffffffffffff1673ffffffffffffffffffffffffffffffffffffffff163373ffffffffffffffffffffffffffffffffffffffff16146105cf576040517f08c379a00000000000000000000000000000000000000000000000000000000081526004016105c690613118565b60405180910390fd5b600080600090505b83518110156107ce57838181518110610619577f4e487b7100000000000000000000000000000000000000000000000000000000600052603260045260246000fd5b60200260200101519150600061062e42610810565b905060005b6007805490508110156107b957600061064c8242611854565b90506000838288878151811061068b577f4e487b7100000000000000000000000000000000000000000000000000000000600052603260045260246000fd5b602002602001015161069d91906135ae565b6106a7919061340c565b90508573ffffffffffffffffffffffffffffffffffffffff166323b872dd3360078681548110610700577f4e487b7100000000000000000000000000000000000000000000000000000000600052603260045260246000fd5b906000526020600020906004020160030160009054906101000a900473ffffffffffffffffffffffffffffffffffffffff16846040518463ffffffff1660e01b815260040161075193929190612fdb565b602060405180830381600087803b15801561076b57600080fd5b505af115801561077f573d6000803e3d6000fd5b505050506040513d601f19601f820116820180604052508101906107a39190612c0b565b50505080806107b190613727565b915050610633565b505080806107c690613727565b9150506105d7565b506107d7611cd0565b505050565b6000600254905090565b6000600860009054906101000a900473ffffffffffffffffffffffffffffffffffffffff16905090565b6000806000905060005b600780549050811015610a7b57600060078281548110610863577f4e487b7100000000000000000000000000000000000000000000000000000000600052603260045260246000fd5b906000526020600020906004020160010154111561099957600062015180600783815481106108bb577f4e487b7100000000000000000000000000000000000000000000000000000000600052603260045260246000fd5b90600052602060002090600402016000015460078481548110610907577f4e487b7100000000000000000000000000000000000000000000000000000000600052603260045260246000fd5b9060005260206000209060040201600101546109239190613608565b61092d919061340c565b905060078281548110610969577f4e487b7100000000000000000000000000000000000000000000000000000000600052603260045260246000fd5b9060005260206000209060040201600201548161098691906135ae565b8361099191906133b6565b925050610a68565b600062015180600783815481106109d9577f4e487b7100000000000000000000000000000000000000000000000000000000600052603260045260246000fd5b906000526020600020906004020160000154866109f69190613608565b610a00919061340c565b905060078281548110610a3c577f4e487b7100000000000000000000000000000000000000000000000000000000600052603260045260246000fd5b90600052602060002090600402016002015481610a5991906135ae565b83610a6491906133b6565b9250505b8080610a7390613727565b91505061081a565b5080915050919050565b6000610a92848484611faa565b6000600160008673ffffffffffffffffffffffffffffffffffffffff1673ffffffffffffffffffffffffffffffffffffffff1681526020019081526020016000206000610add611afd565b73ffffffffffffffffffffffffffffffffffffffff1673ffffffffffffffffffffffffffffffffffffffff16815260200190815260200160002054905082811015610b5d576040517f08c379a0000000000000000000000000000000000000000000000000000000008152600401610b5490613138565b60405180910390fd5b610b7185610b69611afd565b858403611b05565b60019150509392505050565b60008060008060008086610b903361111d565b1015610bd1576040517f08c379a0000000000000000000000000000000000000000000000000000000008152600401610bc890613098565b60405180910390fd5b6103e8601888610be191906135ae565b610beb919061340c565b925082600b6000828254610bff91906133b6565b925050819055506103e8600388610c1691906135ae565b610c20919061340c565b9550612710601588610c3291906135ae565b610c3c919061340c565b9450612710600988610c4e91906135ae565b610c58919061340c565b93506000610c646107dc565b90508781610c7291906135ae565b600282610c7f9190613490565b82600b54610c8d91906135ae565b610c9791906133b6565b610ca19190613608565b886002600b54610cb19190613490565b610cbb91906135ae565b610cc5919061340c565b915081600b6000828254610cd99190613608565b925050819055508782610cec91906133b6565b9250600560009054906101000a900473ffffffffffffffffffffffffffffffffffffffff1673ffffffffffffffffffffffffffffffffffffffff1663a9059cbb3387898b8989610d3c9190613608565b610d469190613608565b610d509190613608565b610d5a9190613608565b6040518363ffffffff1660e01b8152600401610d77929190613012565b602060405180830381600087803b158015610d9157600080fd5b505af1158015610da5573d6000803e3d6000fd5b505050506040513d601f19601f82011682018060405250810190610dc99190612c0b565b50610dd4338961222b565b600560009054906101000a900473ffffffffffffffffffffffffffffffffffffffff1673ffffffffffffffffffffffffffffffffffffffff1663a9059cbb600860009054906101000a900473ffffffffffffffffffffffffffffffffffffffff16886040518363ffffffff1660e01b8152600401610e53929190613012565b602060405180830381600087803b158015610e6d57600080fd5b505af1158015610e81573d6000803e3d6000fd5b505050506040513d601f19601f82011682018060405250810190610ea59190612c0b565b50600560009054906101000a900473ffffffffffffffffffffffffffffffffffffffff1673ffffffffffffffffffffffffffffffffffffffff1663a9059cbb600d60009054906101000a900473ffffffffffffffffffffffffffffffffffffffff16896040518363ffffffff1660e01b8152600401610f25929190613012565b602060405180830381600087803b158015610f3f57600080fd5b505af1158015610f53573d6000803e3d6000fd5b505050506040513d601f19601f82011682018060405250810190610f779190612c0b565b50600560009054906101000a900473ffffffffffffffffffffffffffffffffffffffff1673ffffffffffffffffffffffffffffffffffffffff1663a9059cbb600d60009054906101000a900473ffffffffffffffffffffffffffffffffffffffff16876040518363ffffffff1660e01b8152600401610ff7929190613012565b602060405180830381600087803b15801561101157600080fd5b505af1158015611025573d6000803e3d6000fd5b505050506040513d601f19601f820116820180604052508101906110499190612c0b565b506110543389612402565b5091939550919395565b60006012905090565b6000611109611074611afd565b848460016000611082611afd565b73ffffffffffffffffffffffffffffffffffffffff1673ffffffffffffffffffffffffffffffffffffffff16815260200190815260200160002060008873ffffffffffffffffffffffffffffffffffffffff1673ffffffffffffffffffffffffffffffffffffffff1681526020019081526020016000205461110491906133b6565b611b05565b6001905092915050565b6000600b54905090565b60008060008373ffffffffffffffffffffffffffffffffffffffff1673ffffffffffffffffffffffffffffffffffffffff168152602001908152602001600020549050919050565b6000600c54905090565b60606004805461117e906136c4565b80601f01602080910402602001604051908101604052809291908181526020018280546111aa906136c4565b80156111f75780601f106111cc576101008083540402835291602001916111f7565b820191906000526020600020905b8154815290600101906020018083116111da57829003601f168201915b5050505050905090565b60008060016000611210611afd565b73ffffffffffffffffffffffffffffffffffffffff1673ffffffffffffffffffffffffffffffffffffffff16815260200190815260200160002060008573ffffffffffffffffffffffffffffffffffffffff1673ffffffffffffffffffffffffffffffffffffffff168152602001908152602001600020549050828110156112cd576040517f08c379a00000000000000000000000000000000000000000000000000000000081526004016112c4906131d8565b60405180910390fd5b6112e16112d8611afd565b85858403611b05565b600191505092915050565b6112f84260008361131e565b505050505050565b600061131461130d611afd565b8484611faa565b6001905092915050565b600080600080600085600560009054906101000a900473ffffffffffffffffffffffffffffffffffffffff1673ffffffffffffffffffffffffffffffffffffffff166370a08231336040518263ffffffff1660e01b81526004016113829190612fc0565b60206040518083038186803b15801561139a57600080fd5b505afa1580156113ae573d6000803e3d6000fd5b505050506040513d601f19601f820116820180604052508101906113d29190612c5d565b1015611413576040517f08c379a000000000000000000000000000000000000000000000000000000000815260040161140a90613158565b60405180910390fd5b6103e860188761142391906135ae565b61142d919061340c565b915081600b600082825461144191906133b6565b925050819055506103e860038761145891906135ae565b611462919061340c565b945061271060158761147491906135ae565b61147e919061340c565b935083600c600082825461149291906133b6565b925050819055506127106009876114a991906135ae565b6114b3919061340c565b9250828486846114c391906133b6565b6114cd91906133b6565b6114d791906133b6565b866114e29190613608565b90506114ee338261268f565b6114fa888883336127ef565b600560009054906101000a900473ffffffffffffffffffffffffffffffffffffffff1673ffffffffffffffffffffffffffffffffffffffff166323b872dd33600860009054906101000a900473ffffffffffffffffffffffffffffffffffffffff16876040518463ffffffff1660e01b815260040161157b93929190612fdb565b602060405180830381600087803b15801561159557600080fd5b505af11580156115a9573d6000803e3d6000fd5b505050506040513d601f19601f820116820180604052508101906115cd9190612c0b565b50600560009054906101000a900473ffffffffffffffffffffffffffffffffffffffff1673ffffffffffffffffffffffffffffffffffffffff166323b872dd33600d60009054906101000a900473ffffffffffffffffffffffffffffffffffffffff16866040518463ffffffff1660e01b815260040161164f93929190612fdb565b602060405180830381600087803b15801561166957600080fd5b505af115801561167d573d6000803e3d6000fd5b505050506040513d601f19601f820116820180604052508101906116a19190612c0b565b50600560009054906101000a900473ffffffffffffffffffffffffffffffffffffffff1673ffffffffffffffffffffffffffffffffffffffff166323b872dd33308888888c6116f09190613608565b6116fa9190613608565b6117049190613608565b6040518463ffffffff1660e01b815260040161172293929190612fdb565b602060405180830381600087803b15801561173c57600080fd5b505af1158015611750573d6000803e3d6000fd5b505050506040513d601f19601f820116820180604052508101906117749190612c0b565b50600560009054906101000a900473ffffffffffffffffffffffffffffffffffffffff1673ffffffffffffffffffffffffffffffffffffffff166323b872dd33600d60009054906101000a900473ffffffffffffffffffffffffffffffffffffffff16886040518463ffffffff1660e01b81526004016117f693929190612fdb565b602060405180830381600087803b15801561181057600080fd5b505af1158015611824573d6000803e3d6000fd5b505050506040513d601f19601f820116820180604052508101906118489190612c0b565b50939792965093509350565b60008060078481548110611891577f4e487b7100000000000000000000000000000000000000000000000000000000600052603260045260246000fd5b90600052602060002090600402016040518060800160405290816000820154815260200160018201548152602001600282015481526020016003820160009054906101000a900473ffffffffffffffffffffffffffffffffffffffff1673ffffffffffffffffffffffffffffffffffffffff1673ffffffffffffffffffffffffffffffffffffffff16815250509050600091506000816020015114156119655780604001516201518082600001518561194a9190613608565b611954919061340c565b61195e91906135ae565b9150611999565b806040015162015180826000015183602001516119829190613608565b61198c919061340c565b61199691906135ae565b91505b5092915050565b6119a86128f1565b600782815481106119e2577f4e487b7100000000000000000000000000000000000000000000000000000000600052603260045260246000fd5b90600052602060002090600402016040518060800160405290816000820154815260200160018201548152602001600282015481526020016003820160009054906101000a900473ffffffffffffffffffffffffffffffffffffffff1673ffffffffffffffffffffffffffffffffffffffff1673ffffffffffffffffffffffffffffffffffffffff16815250509050919050565b6000600160008473ffffffffffffffffffffffffffffffffffffffff1673ffffffffffffffffffffffffffffffffffffffff16815260200190815260200160002060008373ffffffffffffffffffffffffffffffffffffffff1673ffffffffffffffffffffffffffffffffffffffff16815260200190815260200160002054905092915050565b600033905090565b600073ffffffffffffffffffffffffffffffffffffffff168373ffffffffffffffffffffffffffffffffffffffff161415611b75576040517f08c379a0000000000000000000000000000000000000000000000000000000008152600401611b6c906131b8565b60405180910390fd5b600073ffffffffffffffffffffffffffffffffffffffff168273ffffffffffffffffffffffffffffffffffffffff161415611be5576040517f08c379a0000000000000000000000000000000000000000000000000000000008152600401611bdc906130d8565b60405180910390fd5b80600160008573ffffffffffffffffffffffffffffffffffffffff1673ffffffffffffffffffffffffffffffffffffffff16815260200190815260200160002060008473ffffffffffffffffffffffffffffffffffffffff1673ffffffffffffffffffffffffffffffffffffffff168152602001908152602001600020819055508173ffffffffffffffffffffffffffffffffffffffff168373ffffffffffffffffffffffffffffffffffffffff167f8c5be1e5ebec7d5bd14f71427d1e84f3dd0314c0f7b2291e5b200ac8c7c3b92583604051611cc39190613233565b60405180910390a3505050565b60005b600780549050811015611fa757600060078281548110611d1c577f4e487b7100000000000000000000000000000000000000000000000000000000600052603260045260246000fd5b9060005260206000209060040201600101541115611ef25760076001600780549050611d489190613608565b81548110611d7f577f4e487b7100000000000000000000000000000000000000000000000000000000600052603260045260246000fd5b906000526020600020906004020160078281548110611dc7577f4e487b7100000000000000000000000000000000000000000000000000000000600052603260045260246000fd5b90600052602060002090600402016000820154816000015560018201548160010155600282015481600201556003820160009054906101000a900473ffffffffffffffffffffffffffffffffffffffff168160030160006101000a81548173ffffffffffffffffffffffffffffffffffffffff021916908373ffffffffffffffffffffffffffffffffffffffff1602179055509050506007805480611e95577f4e487b7100000000000000000000000000000000000000000000000000000000600052603160045260246000fd5b6001900381819060005260206000209060040201600080820160009055600182016000905560028201600090556003820160006101000a81549073ffffffffffffffffffffffffffffffffffffffff021916905550509055611f94565b4260078281548110611f2d577f4e487b7100000000000000000000000000000000000000000000000000000000600052603260045260246000fd5b906000526020600020906004020160000181905550600060078281548110611f7e577f4e487b7100000000000000000000000000000000000000000000000000000000600052603260045260246000fd5b9060005260206000209060040201600101819055505b8080611f9f90613727565b915050611cd3565b50565b600073ffffffffffffffffffffffffffffffffffffffff168373ffffffffffffffffffffffffffffffffffffffff16141561201a576040517f08c379a000000000000000000000000000000000000000000000000000000000815260040161201190613198565b60405180910390fd5b600073ffffffffffffffffffffffffffffffffffffffff168273ffffffffffffffffffffffffffffffffffffffff16141561208a576040517f08c379a000000000000000000000000000000000000000000000000000000000815260040161208190613078565b60405180910390fd5b6120958383836128e7565b60008060008573ffffffffffffffffffffffffffffffffffffffff1673ffffffffffffffffffffffffffffffffffffffff1681526020019081526020016000205490508181101561211b576040517f08c379a0000000000000000000000000000000000000000000000000000000008152600401612112906130f8565b60405180910390fd5b8181036000808673ffffffffffffffffffffffffffffffffffffffff1673ffffffffffffffffffffffffffffffffffffffff16815260200190815260200160002081905550816000808573ffffffffffffffffffffffffffffffffffffffff1673ffffffffffffffffffffffffffffffffffffffff16815260200190815260200160002060008282546121ae91906133b6565b925050819055508273ffffffffffffffffffffffffffffffffffffffff168473ffffffffffffffffffffffffffffffffffffffff167fddf252ad1be2c89b69c2b068fc378daa952ba7f163c4a11628f55a4df523b3ef846040516122129190613233565b60405180910390a36122258484846128ec565b50505050565b600073ffffffffffffffffffffffffffffffffffffffff168273ffffffffffffffffffffffffffffffffffffffff16141561229b576040517f08c379a000000000000000000000000000000000000000000000000000000000815260040161229290613178565b60405180910390fd5b6122a7826000836128e7565b60008060008473ffffffffffffffffffffffffffffffffffffffff1673ffffffffffffffffffffffffffffffffffffffff1681526020019081526020016000205490508181101561232d576040517f08c379a0000000000000000000000000000000000000000000000000000000008152600401612324906130b8565b60405180910390fd5b8181036000808573ffffffffffffffffffffffffffffffffffffffff1673ffffffffffffffffffffffffffffffffffffffff1681526020019081526020016000208190555081600260008282546123849190613608565b92505081905550600073ffffffffffffffffffffffffffffffffffffffff168373ffffffffffffffffffffffffffffffffffffffff167fddf252ad1be2c89b69c2b068fc378daa952ba7f163c4a11628f55a4df523b3ef846040516123e99190613233565b60405180910390a36123fd836000846128ec565b505050565b6000805b600780549050811015612689578373ffffffffffffffffffffffffffffffffffffffff1660078281548110612464577f4e487b7100000000000000000000000000000000000000000000000000000000600052603260045260246000fd5b906000526020600020906004020160030160009054906101000a900473ffffffffffffffffffffffffffffffffffffffff1673ffffffffffffffffffffffffffffffffffffffff1614156126765782600782815481106124ed577f4e487b7100000000000000000000000000000000000000000000000000000000600052603260045260246000fd5b9060005260206000209060040201600201548361250a91906133b6565b116125bd57426007828154811061254a577f4e487b7100000000000000000000000000000000000000000000000000000000600052603260045260246000fd5b90600052602060002090600402016001018190555060078181548110612599577f4e487b7100000000000000000000000000000000000000000000000000000000600052603260045260246000fd5b906000526020600020906004020160020154826125b691906133b6565b9150612675565b600083600783815481106125fa577f4e487b7100000000000000000000000000000000000000000000000000000000600052603260045260246000fd5b9060005260206000209060040201600201548461261791906133b6565b6126219190613608565b9050806007838154811061265e577f4e487b7100000000000000000000000000000000000000000000000000000000600052603260045260246000fd5b906000526020600020906004020160020181905550505b5b808061268190613727565b915050612406565b50505050565b600073ffffffffffffffffffffffffffffffffffffffff168273ffffffffffffffffffffffffffffffffffffffff1614156126ff576040517f08c379a00000000000000000000000000000000000000000000000000000000081526004016126f6906131f8565b60405180910390fd5b61270b600083836128e7565b806002600082825461271d91906133b6565b92505081905550806000808473ffffffffffffffffffffffffffffffffffffffff1673ffffffffffffffffffffffffffffffffffffffff168152602001908152602001600020600082825461277291906133b6565b925050819055508173ffffffffffffffffffffffffffffffffffffffff16600073ffffffffffffffffffffffffffffffffffffffff167fddf252ad1be2c89b69c2b068fc378daa952ba7f163c4a11628f55a4df523b3ef836040516127d79190613233565b60405180910390a36127eb600083836128ec565b5050565b6127f76128f1565b84816000018181525050838160200181815250508281604001818152505081816060019073ffffffffffffffffffffffffffffffffffffffff16908173ffffffffffffffffffffffffffffffffffffffff1681525050600781908060018154018082558091505060019003906000526020600020906004020160009091909190915060008201518160000155602082015181600101556040820151816002015560608201518160030160006101000a81548173ffffffffffffffffffffffffffffffffffffffff021916908373ffffffffffffffffffffffffffffffffffffffff16021790555050505050505050565b505050565b505050565b6040518060800160405280600081526020016000815260200160008152602001600073ffffffffffffffffffffffffffffffffffffffff1681525090565b600061294261293d84613342565b61331d565b9050808382526020820190508285602086028201111561296157600080fd5b60005b8581101561299157816129778882612a07565b845260208401935060208301925050600181019050612964565b5050509392505050565b60006129ae6129a98461336e565b61331d565b905080838252602082019050828560208602820111156129cd57600080fd5b60005b858110156129fd57816129e38882612a85565b8452602084019350602083019250506001810190506129d0565b5050509392505050565b600081359050612a1681613c01565b92915050565b600082601f830112612a2d57600080fd5b8135612a3d84826020860161292f565b91505092915050565b600082601f830112612a5757600080fd5b8135612a6784826020860161299b565b91505092915050565b600081519050612a7f81613c18565b92915050565b600081359050612a9481613c2f565b92915050565b600081519050612aa981613c2f565b92915050565b600060208284031215612ac157600080fd5b6000612acf84828501612a07565b91505092915050565b60008060408385031215612aeb57600080fd5b6000612af985828601612a07565b9250506020612b0a85828601612a07565b9150509250929050565b600080600060608486031215612b2957600080fd5b6000612b3786828701612a07565b9350506020612b4886828701612a07565b9250506040612b5986828701612a85565b9150509250925092565b60008060408385031215612b7657600080fd5b6000612b8485828601612a07565b9250506020612b9585828601612a85565b9150509250929050565b60008060408385031215612bb257600080fd5b600083013567ffffffffffffffff811115612bcc57600080fd5b612bd885828601612a1c565b925050602083013567ffffffffffffffff811115612bf557600080fd5b612c0185828601612a46565b9150509250929050565b600060208284031215612c1d57600080fd5b6000612c2b84828501612a70565b91505092915050565b600060208284031215612c4657600080fd5b6000612c5484828501612a85565b91505092915050565b600060208284031215612c6f57600080fd5b6000612c7d84828501612a9a565b91505092915050565b60008060408385031215612c9957600080fd5b6000612ca785828601612a85565b9250506020612cb885828601612a85565b9150509250929050565b600080600060608486031215612cd757600080fd5b6000612ce586828701612a85565b9350506020612cf686828701612a85565b9250506040612d0786828701612a85565b9150509250925092565b612d1a8161363c565b82525050565b612d298161363c565b82525050565b612d388161364e565b82525050565b6000612d498261339a565b612d5381856133a5565b9350612d63818560208601613691565b612d6c8161382c565b840191505092915050565b6000612d846023836133a5565b9150612d8f8261384a565b604082019050919050565b6000612da76017836133a5565b9150612db282613899565b602082019050919050565b6000612dca6022836133a5565b9150612dd5826138c2565b604082019050919050565b6000612ded6022836133a5565b9150612df882613911565b604082019050919050565b6000612e106026836133a5565b9150612e1b82613960565b604082019050919050565b6000612e336039836133a5565b9150612e3e826139af565b604082019050919050565b6000612e566028836133a5565b9150612e61826139fe565b604082019050919050565b6000612e796025836133a5565b9150612e8482613a4d565b604082019050919050565b6000612e9c6021836133a5565b9150612ea782613a9c565b604082019050919050565b6000612ebf6025836133a5565b9150612eca82613aeb565b604082019050919050565b6000612ee26024836133a5565b9150612eed82613b3a565b604082019050919050565b6000612f056025836133a5565b9150612f1082613b89565b604082019050919050565b6000612f28601f836133a5565b9150612f3382613bd8565b602082019050919050565b608082016000820151612f546000850182612f93565b506020820151612f676020850182612f93565b506040820151612f7a6040850182612f93565b506060820151612f8d6060850182612d11565b50505050565b612f9c8161367a565b82525050565b612fab8161367a565b82525050565b612fba81613684565b82525050565b6000602082019050612fd56000830184612d20565b92915050565b6000606082019050612ff06000830186612d20565b612ffd6020830185612d20565b61300a6040830184612fa2565b949350505050565b60006040820190506130276000830185612d20565b6130346020830184612fa2565b9392505050565b60006020820190506130506000830184612d2f565b92915050565b600060208201905081810360008301526130708184612d3e565b905092915050565b6000602082019050818103600083015261309181612d77565b9050919050565b600060208201905081810360008301526130b181612d9a565b9050919050565b600060208201905081810360008301526130d181612dbd565b9050919050565b600060208201905081810360008301526130f181612de0565b9050919050565b6000602082019050818103600083015261311181612e03565b9050919050565b6000602082019050818103600083015261313181612e26565b9050919050565b6000602082019050818103600083015261315181612e49565b9050919050565b6000602082019050818103600083015261317181612e6c565b9050919050565b6000602082019050818103600083015261319181612e8f565b9050919050565b600060208201905081810360008301526131b181612eb2565b9050919050565b600060208201905081810360008301526131d181612ed5565b9050919050565b600060208201905081810360008301526131f181612ef8565b9050919050565b6000602082019050818103600083015261321181612f1b565b9050919050565b600060808201905061322d6000830184612f3e565b92915050565b60006020820190506132486000830184612fa2565b92915050565b600060a0820190506132636000830188612fa2565b6132706020830187612fa2565b61327d6040830186612fa2565b61328a6060830185612fa2565b6132976080830184612fa2565b9695505050505050565b600060c0820190506132b66000830189612fa2565b6132c36020830188612fa2565b6132d06040830187612fa2565b6132dd6060830186612fa2565b6132ea6080830185612fa2565b6132f760a0830184612fa2565b979650505050505050565b60006020820190506133176000830184612fb1565b92915050565b6000613327613338565b905061333382826136f6565b919050565b6000604051905090565b600067ffffffffffffffff82111561335d5761335c6137fd565b5b602082029050602081019050919050565b600067ffffffffffffffff821115613389576133886137fd565b5b602082029050602081019050919050565b600081519050919050565b600082825260208201905092915050565b60006133c18261367a565b91506133cc8361367a565b9250827fffffffffffffffffffffffffffffffffffffffffffffffffffffffffffffffff0382111561340157613400613770565b5b828201905092915050565b60006134178261367a565b91506134228361367a565b9250826134325761343161379f565b5b828204905092915050565b6000808291508390505b60018511156134875780860481111561346357613462613770565b5b60018516156134725780820291505b80810290506134808561383d565b9450613447565b94509492505050565b600061349b8261367a565b91506134a683613684565b92506134d37fffffffffffffffffffffffffffffffffffffffffffffffffffffffffffffffff84846134db565b905092915050565b6000826134eb57600190506135a7565b816134f957600090506135a7565b816001811461350f576002811461351957613548565b60019150506135a7565b60ff84111561352b5761352a613770565b5b8360020a91508482111561354257613541613770565b5b506135a7565b5060208310610133831016604e8410600b841016171561357d5782820a90508381111561357857613577613770565b5b6135a7565b61358a848484600161343d565b925090508184048111156135a1576135a0613770565b5b81810290505b9392505050565b60006135b98261367a565b91506135c48361367a565b9250817fffffffffffffffffffffffffffffffffffffffffffffffffffffffffffffffff04831182151516156135fd576135fc613770565b5b828202905092915050565b60006136138261367a565b915061361e8361367a565b92508282101561363157613630613770565b5b828203905092915050565b60006136478261365a565b9050919050565b60008115159050919050565b600073ffffffffffffffffffffffffffffffffffffffff82169050919050565b6000819050919050565b600060ff82169050919050565b60005b838110156136af578082015181840152602081019050613694565b838111156136be576000848401525b50505050565b600060028204905060018216806136dc57607f821691505b602082108114156136f0576136ef6137ce565b5b50919050565b6136ff8261382c565b810181811067ffffffffffffffff8211171561371e5761371d6137fd565b5b80604052505050565b60006137328261367a565b91507fffffffffffffffffffffffffffffffffffffffffffffffffffffffffffffffff82141561376557613764613770565b5b600182019050919050565b7f4e487b7100000000000000000000000000000000000000000000000000000000600052601160045260246000fd5b7f4e487b7100000000000000000000000000000000000000000000000000000000600052601260045260246000fd5b7f4e487b7100000000000000000000000000000000000000000000000000000000600052602260045260246000fd5b7f4e487b7100000000000000000000000000000000000000000000000000000000600052604160045260246000fd5b6000601f19601f8301169050919050565b60008160011c9050919050565b7f45524332303a207472616e7366657220746f20746865207a65726f206164647260008201527f6573730000000000000000000000000000000000000000000000000000000000602082015250565b7f496e73756666696369656e74207374616b656420564c52000000000000000000600082015250565b7f45524332303a206275726e20616d6f756e7420657863656564732062616c616e60008201527f6365000000000000000000000000000000000000000000000000000000000000602082015250565b7f45524332303a20617070726f766520746f20746865207a65726f20616464726560008201527f7373000000000000000000000000000000000000000000000000000000000000602082015250565b7f45524332303a207472616e7366657220616d6f756e742065786365656473206260008201527f616c616e63650000000000000000000000000000000000000000000000000000602082015250565b7f4f6e6c792064657369676e61746564206469737472696275746f722063616e2060008201527f6d616b652072657761726420646973747269627574696f6e7300000000000000602082015250565b7f45524332303a207472616e7366657220616d6f756e742065786365656473206160008201527f6c6c6f77616e6365000000000000000000000000000000000000000000000000602082015250565b7f496e73756666696369656e7420656e746572707269736520746f6b656e20626160008201527f6c616e6365000000000000000000000000000000000000000000000000000000602082015250565b7f45524332303a206275726e2066726f6d20746865207a65726f2061646472657360008201527f7300000000000000000000000000000000000000000000000000000000000000602082015250565b7f45524332303a207472616e736665722066726f6d20746865207a65726f20616460008201527f6472657373000000000000000000000000000000000000000000000000000000602082015250565b7f45524332303a20617070726f76652066726f6d20746865207a65726f2061646460008201527f7265737300000000000000000000000000000000000000000000000000000000602082015250565b7f45524332303a2064656372656173656420616c6c6f77616e63652062656c6f7760008201527f207a65726f000000000000000000000000000000000000000000000000000000602082015250565b7f45524332303a206d696e7420746f20746865207a65726f206164647265737300600082015250565b613c0a8161363c565b8114613c1557600080fd5b50565b613c218161364e565b8114613c2c57600080fd5b50565b613c388161367a565b8114613c4357600080fd5b5056fea2646970667358221220edc10ae077e83e5a554466c385dd705eac28c345599b1bd704c92d393b1b6e8f64736f6c63430008040033",
  "linkReferences": {},
  "deployedLinkReferences": {}
}