{
  "address": "0xc8e5A37F1F7019FC62637278e6d87D38753171D0",
  "abi": [
    {
      "inputs": [
        {
          "internalType": "string",
          "name": "_tokenName",
          "type": "string"
        },
        {
          "internalType": "string",
          "name": "_symbol",
          "type": "string"
        },
        {
          "internalType": "address",
          "name": "_eVlrContractAddress",
          "type": "address"
        },
        {
          "internalType": "address",
          "name": "_charityBagAddress",
          "type": "address"
        },
        {
          "internalType": "address",
          "name": "_distributorAddress",
          "type": "address"
        },
        {
          "internalType": "uint256",
          "name": "_stakingFee",
          "type": "uint256"
        },
        {
          "internalType": "uint256",
          "name": "_charityFee",
          "type": "uint256"
        },
        {
          "internalType": "uint256",
          "name": "_burnFee",
          "type": "uint256"
        }
      ],
      "stateMutability": "nonpayable",
      "type": "constructor"
    },
    {
      "anonymous": false,
      "inputs": [
        {
          "indexed": true,
          "internalType": "address",
          "name": "owner",
          "type": "address"
        },
        {
          "indexed": true,
          "internalType": "address",
          "name": "spender",
          "type": "address"
        },
        {
          "indexed": false,
          "internalType": "uint256",
          "name": "value",
          "type": "uint256"
        }
      ],
      "name": "Approval",
      "type": "event"
    },
    {
      "anonymous": false,
      "inputs": [
        {
          "indexed": true,
          "internalType": "address",
          "name": "from",
          "type": "address"
        },
        {
          "indexed": true,
          "internalType": "address",
          "name": "to",
          "type": "address"
        },
        {
          "indexed": false,
          "internalType": "uint256",
          "name": "value",
          "type": "uint256"
        }
      ],
      "name": "Transfer",
      "type": "event"
    },
    {
      "inputs": [
        {
          "internalType": "address",
          "name": "owner",
          "type": "address"
        },
        {
          "internalType": "address",
          "name": "spender",
          "type": "address"
        }
      ],
      "name": "allowance",
      "outputs": [
        {
          "internalType": "uint256",
          "name": "",
          "type": "uint256"
        }
      ],
      "stateMutability": "view",
      "type": "function"
    },
    {
      "inputs": [
        {
          "internalType": "address",
          "name": "spender",
          "type": "address"
        },
        {
          "internalType": "uint256",
          "name": "amount",
          "type": "uint256"
        }
      ],
      "name": "approve",
      "outputs": [
        {
          "internalType": "bool",
          "name": "",
          "type": "bool"
        }
      ],
      "stateMutability": "nonpayable",
      "type": "function"
    },
    {
      "inputs": [
        {
          "internalType": "address",
          "name": "account",
          "type": "address"
        }
      ],
      "name": "balanceOf",
      "outputs": [
        {
          "internalType": "uint256",
          "name": "",
          "type": "uint256"
        }
      ],
      "stateMutability": "view",
      "type": "function"
    },
    {
      "inputs": [
        {
          "internalType": "address",
          "name": "newDistributor",
          "type": "address"
        }
      ],
      "name": "changeDistributor",
      "outputs": [],
      "stateMutability": "nonpayable",
      "type": "function"
    },
    {
      "inputs": [],
      "name": "decimals",
      "outputs": [
        {
          "internalType": "uint8",
          "name": "",
          "type": "uint8"
        }
      ],
      "stateMutability": "view",
      "type": "function"
    },
    {
      "inputs": [
        {
          "internalType": "address",
          "name": "spender",
          "type": "address"
        },
        {
          "internalType": "uint256",
          "name": "subtractedValue",
          "type": "uint256"
        }
      ],
      "name": "decreaseAllowance",
      "outputs": [
        {
          "internalType": "bool",
          "name": "",
          "type": "bool"
        }
      ],
      "stateMutability": "nonpayable",
      "type": "function"
    },
    {
      "inputs": [
        {
          "internalType": "uint256",
          "name": "rewardTokenValue",
          "type": "uint256"
        }
      ],
      "name": "distributeRewards",
      "outputs": [],
      "stateMutability": "nonpayable",
      "type": "function"
    },
    {
      "inputs": [],
      "name": "getCharityAddress",
      "outputs": [
        {
          "internalType": "address",
          "name": "_charityBagAddress",
          "type": "address"
        }
      ],
      "stateMutability": "view",
      "type": "function"
    },
    {
      "inputs": [],
      "name": "getStakingRewardsBag",
      "outputs": [
        {
          "internalType": "uint256",
          "name": "totalRewards",
          "type": "uint256"
        }
      ],
      "stateMutability": "view",
      "type": "function"
    },
    {
      "inputs": [],
      "name": "getTotalCharityCollected",
      "outputs": [
        {
          "internalType": "uint256",
          "name": "total",
          "type": "uint256"
        }
      ],
      "stateMutability": "view",
      "type": "function"
    },
    {
      "inputs": [
        {
          "internalType": "address",
          "name": "spender",
          "type": "address"
        },
        {
          "internalType": "uint256",
          "name": "addedValue",
          "type": "uint256"
        }
      ],
      "name": "increaseAllowance",
      "outputs": [
        {
          "internalType": "bool",
          "name": "",
          "type": "bool"
        }
      ],
      "stateMutability": "nonpayable",
      "type": "function"
    },
    {
      "inputs": [],
      "name": "name",
      "outputs": [
        {
          "internalType": "string",
          "name": "",
          "type": "string"
        }
      ],
      "stateMutability": "view",
      "type": "function"
    },
    {
      "inputs": [
        {
          "internalType": "uint256",
          "name": "_stakedVlrAmount",
          "type": "uint256"
        }
      ],
      "name": "stake",
      "outputs": [
        {
          "internalType": "uint256",
          "name": "svlrMinted",
          "type": "uint256"
        },
        {
          "internalType": "uint256",
          "name": "stakingFeePaid",
          "type": "uint256"
        },
        {
          "internalType": "uint256",
          "name": "charityFeePaid",
          "type": "uint256"
        },
        {
          "internalType": "uint256",
          "name": "burnFeePaid",
          "type": "uint256"
        }
      ],
      "stateMutability": "nonpayable",
      "type": "function"
    },
    {
      "inputs": [],
      "name": "symbol",
      "outputs": [
        {
          "internalType": "string",
          "name": "",
          "type": "string"
        }
      ],
      "stateMutability": "view",
      "type": "function"
    },
    {
      "inputs": [],
      "name": "totalSupply",
      "outputs": [
        {
          "internalType": "uint256",
          "name": "",
          "type": "uint256"
        }
      ],
      "stateMutability": "view",
      "type": "function"
    },
    {
      "inputs": [
        {
          "internalType": "address",
          "name": "recipient",
          "type": "address"
        },
        {
          "internalType": "uint256",
          "name": "amount",
          "type": "uint256"
        }
      ],
      "name": "transfer",
      "outputs": [
        {
          "internalType": "bool",
          "name": "",
          "type": "bool"
        }
      ],
      "stateMutability": "nonpayable",
      "type": "function"
    },
    {
      "inputs": [
        {
          "internalType": "address",
          "name": "sender",
          "type": "address"
        },
        {
          "internalType": "address",
          "name": "recipient",
          "type": "address"
        },
        {
          "internalType": "uint256",
          "name": "amount",
          "type": "uint256"
        }
      ],
      "name": "transferFrom",
      "outputs": [
        {
          "internalType": "bool",
          "name": "",
          "type": "bool"
        }
      ],
      "stateMutability": "nonpayable",
      "type": "function"
    },
    {
      "inputs": [
        {
          "internalType": "uint256",
          "name": "_unstakedAmount",
          "type": "uint256"
        }
      ],
      "name": "unstake",
      "outputs": [
        {
          "internalType": "uint256",
          "name": "charityFeePaid",
          "type": "uint256"
        },
        {
          "internalType": "uint256",
          "name": "burnFeePaid",
          "type": "uint256"
        },
        {
          "internalType": "uint256",
          "name": "stakingFeePaid",
          "type": "uint256"
        },
        {
          "internalType": "uint256",
          "name": "vlrReturned",
          "type": "uint256"
        },
        {
          "internalType": "uint256",
          "name": "vlrRewardsReturned",
          "type": "uint256"
        }
      ],
      "stateMutability": "nonpayable",
      "type": "function"
    }
  ],
  "transactionHash": "0x0a4baa296cb2aca0204d2f31708b82b05c560c91c00c91ccc1d0d514ca7899c2",
  "args": [
    "Staked EVLR1 Token",
    "SEVLR",
    "0x82Ba66F57D5E419e990767Cf85edfF480350723b",
    "0x232AaA721a1a6e55084bf7B9f39E457F80bDA751",
    "0x8995ae7935Ac2C9267D1D232B13778b94d8794F6",
    270,
    21,
    9
  ],
  "solcInputHash": "a62836230729a44e8884ae9dab4ae091",
  "bytecode": "0x608060405261dead600a60006101000a81548173ffffffffffffffffffffffffffffffffffffffff021916908373ffffffffffffffffffffffffffffffffffffffff1602179055503480156200005457600080fd5b5060405162003d6638038062003d6683398181016040528101906200007a9190620002ee565b87878160039080519060200190620000949291906200019e565b508060049080519060200190620000ad9291906200019e565b50505085600560006101000a81548173ffffffffffffffffffffffffffffffffffffffff021916908373ffffffffffffffffffffffffffffffffffffffff160217905550600060098190555084600760006101000a81548173ffffffffffffffffffffffffffffffffffffffff021916908373ffffffffffffffffffffffffffffffffffffffff16021790555083600860006101000a81548173ffffffffffffffffffffffffffffffffffffffff021916908373ffffffffffffffffffffffffffffffffffffffff16021790555082600b8190555081600c8190555080600d819055505050505050505050620005c5565b828054620001ac90620004b6565b90600052602060002090601f016020900481019282620001d057600085556200021c565b82601f10620001eb57805160ff19168380011785556200021c565b828001600101855582156200021c579182015b828111156200021b578251825591602001919060010190620001fe565b5b5090506200022b91906200022f565b5090565b5b808211156200024a57600081600090555060010162000230565b5090565b6000620002656200025f846200040c565b620003e3565b9050828152602081018484840111156200027e57600080fd5b6200028b84828562000480565b509392505050565b600081519050620002a48162000591565b92915050565b600082601f830112620002bc57600080fd5b8151620002ce8482602086016200024e565b91505092915050565b600081519050620002e881620005ab565b92915050565b600080600080600080600080610100898b0312156200030c57600080fd5b600089015167ffffffffffffffff8111156200032757600080fd5b620003358b828c01620002aa565b985050602089015167ffffffffffffffff8111156200035357600080fd5b620003618b828c01620002aa565b9750506040620003748b828c0162000293565b9650506060620003878b828c0162000293565b95505060806200039a8b828c0162000293565b94505060a0620003ad8b828c01620002d7565b93505060c0620003c08b828c01620002d7565b92505060e0620003d38b828c01620002d7565b9150509295985092959890939650565b6000620003ef62000402565b9050620003fd8282620004ec565b919050565b6000604051905090565b600067ffffffffffffffff8211156200042a576200042962000551565b5b620004358262000580565b9050602081019050919050565b60006200044f8262000456565b9050919050565b600073ffffffffffffffffffffffffffffffffffffffff82169050919050565b6000819050919050565b60005b83811015620004a057808201518184015260208101905062000483565b83811115620004b0576000848401525b50505050565b60006002820490506001821680620004cf57607f821691505b60208210811415620004e657620004e562000522565b5b50919050565b620004f78262000580565b810181811067ffffffffffffffff8211171562000519576200051862000551565b5b80604052505050565b7f4e487b7100000000000000000000000000000000000000000000000000000000600052602260045260246000fd5b7f4e487b7100000000000000000000000000000000000000000000000000000000600052604160045260246000fd5b6000601f19601f8301169050919050565b6200059c8162000442565b8114620005a857600080fd5b50565b620005b68162000476565b8114620005c257600080fd5b50565b61379180620005d56000396000f3fe608060405234801561001057600080fd5b50600436106101165760003560e01c806359974e38116100a257806395d89b411161007157806395d89b41146102fb578063a457c2d714610319578063a694fc3a14610349578063a9059cbb1461037c578063dd62ed3e146103ac57610116565b806359974e381461027557806370a08231146102915780637edd7e4d146102c1578063802cd15f146102df57610116565b806323b872dd116100e957806323b872dd146101a55780632e17de78146101d5578063313ce5671461020957806339509351146102275780634e1fce511461025757610116565b806306fdde031461011b578063095ea7b31461013957806318160ddd146101695780631ad0639314610187575b600080fd5b6101236103dc565b6040516101309190612ba1565b60405180910390f35b610153600480360381019061014e91906127d2565b61046e565b6040516101609190612b86565b60405180910390f35b61017161048c565b60405161017e9190612da3565b60405180910390f35b61018f610496565b60405161019c9190612b0b565b60405180910390f35b6101bf60048036038101906101ba9190612783565b6104c0565b6040516101cc9190612b86565b60405180910390f35b6101ef60048036038101906101ea9190612837565b6105b8565b604051610200959493929190612e03565b60405180910390f35b6102116109a2565b60405161021e9190612e56565b60405180910390f35b610241600480360381019061023c91906127d2565b6109ab565b60405161024e9190612b86565b60405180910390f35b61025f610a57565b60405161026c9190612da3565b60405180910390f35b61028f600480360381019061028a9190612837565b610a61565b005b6102ab60048036038101906102a6919061271e565b610d61565b6040516102b89190612da3565b60405180910390f35b6102c9610da9565b6040516102d69190612da3565b60405180910390f35b6102f960048036038101906102f4919061271e565b610db3565b005b610303610e87565b6040516103109190612ba1565b60405180910390f35b610333600480360381019061032e91906127d2565b610f19565b6040516103409190612b86565b60405180910390f35b610363600480360381019061035e9190612837565b611004565b6040516103739493929190612dbe565b60405180910390f35b610396600480360381019061039191906127d2565b611432565b6040516103a39190612b86565b60405180910390f35b6103c660048036038101906103c19190612747565b611450565b6040516103d39190612da3565b60405180910390f35b6060600380546103eb9061319b565b80601f01602080910402602001604051908101604052809291908181526020018280546104179061319b565b80156104645780601f1061043957610100808354040283529160200191610464565b820191906000526020600020905b81548152906001019060200180831161044757829003601f168201915b5050505050905090565b600061048261047b6114d7565b84846114df565b6001905092915050565b6000600254905090565b6000600760009054906101000a900473ffffffffffffffffffffffffffffffffffffffff16905090565b60006104cd8484846116aa565b6000600160008673ffffffffffffffffffffffffffffffffffffffff1673ffffffffffffffffffffffffffffffffffffffff16815260200190815260200160002060006105186114d7565b73ffffffffffffffffffffffffffffffffffffffff1673ffffffffffffffffffffffffffffffffffffffff16815260200190815260200160002054905082811015610598576040517f08c379a000000000000000000000000000000000000000000000000000000000815260040161058f90612c83565b60405180910390fd5b6105ac856105a46114d7565b8584036114df565b60019150509392505050565b6000806000806000856105ca33610d61565b101561060b576040517f08c379a000000000000000000000000000000000000000000000000000000000815260040161060290612be3565b60405180910390fd5b6103e8600b548761061c9190613085565b6106269190612ee3565b9250826009600082825461063a9190612e8d565b92505081905550612710600c54876106529190613085565b61065c9190612ee3565b9450612710600d548761066f9190613085565b6106799190612ee3565b9350600061068561048c565b905086816106939190613085565b6002826106a09190612f67565b826009546106ae9190613085565b6106b89190612e8d565b6106c291906130df565b8760026009546106d29190612f67565b6106dc9190613085565b6106e69190612ee3565b915081600960008282546106fa91906130df565b92505081905550868261070d9190612e8d565b9250600560009054906101000a900473ffffffffffffffffffffffffffffffffffffffff1673ffffffffffffffffffffffffffffffffffffffff1663a9059cbb338789888861075c91906130df565b61076691906130df565b61077091906130df565b6040518363ffffffff1660e01b815260040161078d929190612b5d565b602060405180830381600087803b1580156107a757600080fd5b505af11580156107bb573d6000803e3d6000fd5b505050506040513d601f19601f820116820180604052508101906107df919061280e565b506107ea338861192b565b600560009054906101000a900473ffffffffffffffffffffffffffffffffffffffff1673ffffffffffffffffffffffffffffffffffffffff1663a9059cbb600760009054906101000a900473ffffffffffffffffffffffffffffffffffffffff16886040518363ffffffff1660e01b8152600401610869929190612b5d565b602060405180830381600087803b15801561088357600080fd5b505af1158015610897573d6000803e3d6000fd5b505050506040513d601f19601f820116820180604052508101906108bb919061280e565b50600560009054906101000a900473ffffffffffffffffffffffffffffffffffffffff1673ffffffffffffffffffffffffffffffffffffffff1663a9059cbb600a60009054906101000a900473ffffffffffffffffffffffffffffffffffffffff16876040518363ffffffff1660e01b815260040161093b929190612b5d565b602060405180830381600087803b15801561095557600080fd5b505af1158015610969573d6000803e3d6000fd5b505050506040513d601f19601f8201168201806040525081019061098d919061280e565b506109983388611b02565b5091939590929450565b60006012905090565b6000610a4d6109b86114d7565b8484600160006109c66114d7565b73ffffffffffffffffffffffffffffffffffffffff1673ffffffffffffffffffffffffffffffffffffffff16815260200190815260200160002060008873ffffffffffffffffffffffffffffffffffffffff1673ffffffffffffffffffffffffffffffffffffffff16815260200190815260200160002054610a489190612e8d565b6114df565b6001905092915050565b6000600954905090565b600860009054906101000a900473ffffffffffffffffffffffffffffffffffffffff1673ffffffffffffffffffffffffffffffffffffffff163373ffffffffffffffffffffffffffffffffffffffff1614610af1576040517f08c379a0000000000000000000000000000000000000000000000000000000008152600401610ae890612c63565b60405180910390fd5b80600560009054906101000a900473ffffffffffffffffffffffffffffffffffffffff1673ffffffffffffffffffffffffffffffffffffffff166370a08231336040518263ffffffff1660e01b8152600401610b4d9190612b0b565b60206040518083038186803b158015610b6557600080fd5b505afa158015610b79573d6000803e3d6000fd5b505050506040513d601f19601f82011682018060405250810190610b9d9190612860565b1015610bde576040517f08c379a0000000000000000000000000000000000000000000000000000000008152600401610bd590612d43565b60405180910390fd5b6000610be942611d8f565b905060005b600680549050811015610d54576000610c078242612004565b90506000838286610c189190613085565b610c229190612ee3565b9050600560009054906101000a900473ffffffffffffffffffffffffffffffffffffffff1673ffffffffffffffffffffffffffffffffffffffff1663a9059cbb60068581548110610c9c577f4e487b7100000000000000000000000000000000000000000000000000000000600052603260045260246000fd5b906000526020600020906004020160030160009054906101000a900473ffffffffffffffffffffffffffffffffffffffff16836040518363ffffffff1660e01b8152600401610cec929190612b5d565b602060405180830381600087803b158015610d0657600080fd5b505af1158015610d1a573d6000803e3d6000fd5b505050506040513d601f19601f82011682018060405250810190610d3e919061280e565b5050508080610d4c906131cd565b915050610bee565b50610d5d612150565b5050565b60008060008373ffffffffffffffffffffffffffffffffffffffff1673ffffffffffffffffffffffffffffffffffffffff168152602001908152602001600020549050919050565b6000600e54905090565b600860009054906101000a900473ffffffffffffffffffffffffffffffffffffffff1673ffffffffffffffffffffffffffffffffffffffff163373ffffffffffffffffffffffffffffffffffffffff1614610e43576040517f08c379a0000000000000000000000000000000000000000000000000000000008152600401610e3a90612ce3565b60405180910390fd5b80600860006101000a81548173ffffffffffffffffffffffffffffffffffffffff021916908373ffffffffffffffffffffffffffffffffffffffff16021790555050565b606060048054610e969061319b565b80601f0160208091040260200160405190810160405280929190818152602001828054610ec29061319b565b8015610f0f5780601f10610ee457610100808354040283529160200191610f0f565b820191906000526020600020905b815481529060010190602001808311610ef257829003601f168201915b5050505050905090565b60008060016000610f286114d7565b73ffffffffffffffffffffffffffffffffffffffff1673ffffffffffffffffffffffffffffffffffffffff16815260200190815260200160002060008573ffffffffffffffffffffffffffffffffffffffff1673ffffffffffffffffffffffffffffffffffffffff16815260200190815260200160002054905082811015610fe5576040517f08c379a0000000000000000000000000000000000000000000000000000000008152600401610fdc90612d63565b60405180910390fd5b610ff9610ff06114d7565b858584036114df565b600191505092915050565b60008060008084600560009054906101000a900473ffffffffffffffffffffffffffffffffffffffff1673ffffffffffffffffffffffffffffffffffffffff166370a08231336040518263ffffffff1660e01b81526004016110669190612b0b565b60206040518083038186803b15801561107e57600080fd5b505afa158015611092573d6000803e3d6000fd5b505050506040513d601f19601f820116820180604052508101906110b69190612860565b10156110f7576040517f08c379a00000000000000000000000000000000000000000000000000000000081526004016110ee90612ca3565b60405180910390fd5b612710600b54866111089190613085565b6111129190612ee3565b925082600960008282546111269190612e8d565b92505081905550612710600c548661113e9190613085565b6111489190612ee3565b915081600e600082825461115c9190612e8d565b92505081905550612710600d54866111749190613085565b61117e9190612ee3565b905080828461118d9190612e8d565b6111979190612e8d565b856111a291906130df565b93506111ae338561242a565b6111bb426000863361258a565b600560009054906101000a900473ffffffffffffffffffffffffffffffffffffffff1673ffffffffffffffffffffffffffffffffffffffff166323b872dd33600760009054906101000a900473ffffffffffffffffffffffffffffffffffffffff16856040518463ffffffff1660e01b815260040161123c93929190612b26565b602060405180830381600087803b15801561125657600080fd5b505af115801561126a573d6000803e3d6000fd5b505050506040513d601f19601f8201168201806040525081019061128e919061280e565b50600560009054906101000a900473ffffffffffffffffffffffffffffffffffffffff1673ffffffffffffffffffffffffffffffffffffffff166323b872dd33600a60009054906101000a900473ffffffffffffffffffffffffffffffffffffffff16846040518463ffffffff1660e01b815260040161131093929190612b26565b602060405180830381600087803b15801561132a57600080fd5b505af115801561133e573d6000803e3d6000fd5b505050506040513d601f19601f82011682018060405250810190611362919061280e565b50600560009054906101000a900473ffffffffffffffffffffffffffffffffffffffff1673ffffffffffffffffffffffffffffffffffffffff166323b872dd333085858a6113b091906130df565b6113ba91906130df565b6040518463ffffffff1660e01b81526004016113d893929190612b26565b602060405180830381600087803b1580156113f257600080fd5b505af1158015611406573d6000803e3d6000fd5b505050506040513d601f19601f8201168201806040525081019061142a919061280e565b509193509193565b600061144661143f6114d7565b84846116aa565b6001905092915050565b6000600160008473ffffffffffffffffffffffffffffffffffffffff1673ffffffffffffffffffffffffffffffffffffffff16815260200190815260200160002060008373ffffffffffffffffffffffffffffffffffffffff1673ffffffffffffffffffffffffffffffffffffffff16815260200190815260200160002054905092915050565b600033905090565b600073ffffffffffffffffffffffffffffffffffffffff168373ffffffffffffffffffffffffffffffffffffffff16141561154f576040517f08c379a000000000000000000000000000000000000000000000000000000000815260040161154690612d23565b60405180910390fd5b600073ffffffffffffffffffffffffffffffffffffffff168273ffffffffffffffffffffffffffffffffffffffff1614156115bf576040517f08c379a00000000000000000000000000000000000000000000000000000000081526004016115b690612c23565b60405180910390fd5b80600160008573ffffffffffffffffffffffffffffffffffffffff1673ffffffffffffffffffffffffffffffffffffffff16815260200190815260200160002060008473ffffffffffffffffffffffffffffffffffffffff1673ffffffffffffffffffffffffffffffffffffffff168152602001908152602001600020819055508173ffffffffffffffffffffffffffffffffffffffff168373ffffffffffffffffffffffffffffffffffffffff167f8c5be1e5ebec7d5bd14f71427d1e84f3dd0314c0f7b2291e5b200ac8c7c3b9258360405161169d9190612da3565b60405180910390a3505050565b600073ffffffffffffffffffffffffffffffffffffffff168373ffffffffffffffffffffffffffffffffffffffff16141561171a576040517f08c379a000000000000000000000000000000000000000000000000000000000815260040161171190612d03565b60405180910390fd5b600073ffffffffffffffffffffffffffffffffffffffff168273ffffffffffffffffffffffffffffffffffffffff16141561178a576040517f08c379a000000000000000000000000000000000000000000000000000000000815260040161178190612bc3565b60405180910390fd5b611795838383612682565b60008060008573ffffffffffffffffffffffffffffffffffffffff1673ffffffffffffffffffffffffffffffffffffffff1681526020019081526020016000205490508181101561181b576040517f08c379a000000000000000000000000000000000000000000000000000000000815260040161181290612c43565b60405180910390fd5b8181036000808673ffffffffffffffffffffffffffffffffffffffff1673ffffffffffffffffffffffffffffffffffffffff16815260200190815260200160002081905550816000808573ffffffffffffffffffffffffffffffffffffffff1673ffffffffffffffffffffffffffffffffffffffff16815260200190815260200160002060008282546118ae9190612e8d565b925050819055508273ffffffffffffffffffffffffffffffffffffffff168473ffffffffffffffffffffffffffffffffffffffff167fddf252ad1be2c89b69c2b068fc378daa952ba7f163c4a11628f55a4df523b3ef846040516119129190612da3565b60405180910390a3611925848484612687565b50505050565b600073ffffffffffffffffffffffffffffffffffffffff168273ffffffffffffffffffffffffffffffffffffffff16141561199b576040517f08c379a000000000000000000000000000000000000000000000000000000000815260040161199290612cc3565b60405180910390fd5b6119a782600083612682565b60008060008473ffffffffffffffffffffffffffffffffffffffff1673ffffffffffffffffffffffffffffffffffffffff16815260200190815260200160002054905081811015611a2d576040517f08c379a0000000000000000000000000000000000000000000000000000000008152600401611a2490612c03565b60405180910390fd5b8181036000808573ffffffffffffffffffffffffffffffffffffffff1673ffffffffffffffffffffffffffffffffffffffff168152602001908152602001600020819055508160026000828254611a8491906130df565b92505081905550600073ffffffffffffffffffffffffffffffffffffffff168373ffffffffffffffffffffffffffffffffffffffff167fddf252ad1be2c89b69c2b068fc378daa952ba7f163c4a11628f55a4df523b3ef84604051611ae99190612da3565b60405180910390a3611afd83600084612687565b505050565b6000805b600680549050811015611d89578373ffffffffffffffffffffffffffffffffffffffff1660068281548110611b64577f4e487b7100000000000000000000000000000000000000000000000000000000600052603260045260246000fd5b906000526020600020906004020160030160009054906101000a900473ffffffffffffffffffffffffffffffffffffffff1673ffffffffffffffffffffffffffffffffffffffff161415611d76578260068281548110611bed577f4e487b7100000000000000000000000000000000000000000000000000000000600052603260045260246000fd5b90600052602060002090600402016002015483611c0a9190612e8d565b11611cbd574260068281548110611c4a577f4e487b7100000000000000000000000000000000000000000000000000000000600052603260045260246000fd5b90600052602060002090600402016001018190555060068181548110611c99577f4e487b7100000000000000000000000000000000000000000000000000000000600052603260045260246000fd5b90600052602060002090600402016002015482611cb69190612e8d565b9150611d75565b60008360068381548110611cfa577f4e487b7100000000000000000000000000000000000000000000000000000000600052603260045260246000fd5b90600052602060002090600402016002015484611d179190612e8d565b611d2191906130df565b90508060068381548110611d5e577f4e487b7100000000000000000000000000000000000000000000000000000000600052603260045260246000fd5b906000526020600020906004020160020181905550505b5b8080611d81906131cd565b915050611b06565b50505050565b6000806000905060005b600680549050811015611ffa57600060068281548110611de2577f4e487b7100000000000000000000000000000000000000000000000000000000600052603260045260246000fd5b9060005260206000209060040201600101541115611f185760006201518060068381548110611e3a577f4e487b7100000000000000000000000000000000000000000000000000000000600052603260045260246000fd5b90600052602060002090600402016000015460068481548110611e86577f4e487b7100000000000000000000000000000000000000000000000000000000600052603260045260246000fd5b906000526020600020906004020160010154611ea291906130df565b611eac9190612ee3565b905060068281548110611ee8577f4e487b7100000000000000000000000000000000000000000000000000000000600052603260045260246000fd5b90600052602060002090600402016002015481611f059190613085565b83611f109190612e8d565b925050611fe7565b60006201518060068381548110611f58577f4e487b7100000000000000000000000000000000000000000000000000000000600052603260045260246000fd5b90600052602060002090600402016000015486611f7591906130df565b611f7f9190612ee3565b905060068281548110611fbb577f4e487b7100000000000000000000000000000000000000000000000000000000600052603260045260246000fd5b90600052602060002090600402016002015481611fd89190613085565b83611fe39190612e8d565b9250505b8080611ff2906131cd565b915050611d99565b5080915050919050565b60008060068481548110612041577f4e487b7100000000000000000000000000000000000000000000000000000000600052603260045260246000fd5b90600052602060002090600402016040518060800160405290816000820154815260200160018201548152602001600282015481526020016003820160009054906101000a900473ffffffffffffffffffffffffffffffffffffffff1673ffffffffffffffffffffffffffffffffffffffff1673ffffffffffffffffffffffffffffffffffffffff1681525050905060009150600081602001511415612115578060400151620151808260000151856120fa91906130df565b6121049190612ee3565b61210e9190613085565b9150612149565b8060400151620151808260000151836020015161213291906130df565b61213c9190612ee3565b6121469190613085565b91505b5092915050565b60005b6006805490508110156124275760006006828154811061219c577f4e487b7100000000000000000000000000000000000000000000000000000000600052603260045260246000fd5b906000526020600020906004020160010154111561237257600660016006805490506121c891906130df565b815481106121ff577f4e487b7100000000000000000000000000000000000000000000000000000000600052603260045260246000fd5b906000526020600020906004020160068281548110612247577f4e487b7100000000000000000000000000000000000000000000000000000000600052603260045260246000fd5b90600052602060002090600402016000820154816000015560018201548160010155600282015481600201556003820160009054906101000a900473ffffffffffffffffffffffffffffffffffffffff168160030160006101000a81548173ffffffffffffffffffffffffffffffffffffffff021916908373ffffffffffffffffffffffffffffffffffffffff1602179055509050506006805480612315577f4e487b7100000000000000000000000000000000000000000000000000000000600052603160045260246000fd5b6001900381819060005260206000209060040201600080820160009055600182016000905560028201600090556003820160006101000a81549073ffffffffffffffffffffffffffffffffffffffff021916905550509055612414565b42600682815481106123ad577f4e487b7100000000000000000000000000000000000000000000000000000000600052603260045260246000fd5b9060005260206000209060040201600001819055506000600682815481106123fe577f4e487b7100000000000000000000000000000000000000000000000000000000600052603260045260246000fd5b9060005260206000209060040201600101819055505b808061241f906131cd565b915050612153565b50565b600073ffffffffffffffffffffffffffffffffffffffff168273ffffffffffffffffffffffffffffffffffffffff16141561249a576040517f08c379a000000000000000000000000000000000000000000000000000000000815260040161249190612d83565b60405180910390fd5b6124a660008383612682565b80600260008282546124b89190612e8d565b92505081905550806000808473ffffffffffffffffffffffffffffffffffffffff1673ffffffffffffffffffffffffffffffffffffffff168152602001908152602001600020600082825461250d9190612e8d565b925050819055508173ffffffffffffffffffffffffffffffffffffffff16600073ffffffffffffffffffffffffffffffffffffffff167fddf252ad1be2c89b69c2b068fc378daa952ba7f163c4a11628f55a4df523b3ef836040516125729190612da3565b60405180910390a361258660008383612687565b5050565b61259261268c565b84816000018181525050838160200181815250508281604001818152505081816060019073ffffffffffffffffffffffffffffffffffffffff16908173ffffffffffffffffffffffffffffffffffffffff1681525050600681908060018154018082558091505060019003906000526020600020906004020160009091909190915060008201518160000155602082015181600101556040820151816002015560608201518160030160006101000a81548173ffffffffffffffffffffffffffffffffffffffff021916908373ffffffffffffffffffffffffffffffffffffffff16021790555050505050505050565b505050565b505050565b6040518060800160405280600081526020016000815260200160008152602001600073ffffffffffffffffffffffffffffffffffffffff1681525090565b6000813590506126d981613716565b92915050565b6000815190506126ee8161372d565b92915050565b60008135905061270381613744565b92915050565b60008151905061271881613744565b92915050565b60006020828403121561273057600080fd5b600061273e848285016126ca565b91505092915050565b6000806040838503121561275a57600080fd5b6000612768858286016126ca565b9250506020612779858286016126ca565b9150509250929050565b60008060006060848603121561279857600080fd5b60006127a6868287016126ca565b93505060206127b7868287016126ca565b92505060406127c8868287016126f4565b9150509250925092565b600080604083850312156127e557600080fd5b60006127f3858286016126ca565b9250506020612804858286016126f4565b9150509250929050565b60006020828403121561282057600080fd5b600061282e848285016126df565b91505092915050565b60006020828403121561284957600080fd5b6000612857848285016126f4565b91505092915050565b60006020828403121561287257600080fd5b600061288084828501612709565b91505092915050565b61289281613113565b82525050565b6128a181613125565b82525050565b60006128b282612e71565b6128bc8185612e7c565b93506128cc818560208601613168565b6128d5816132a3565b840191505092915050565b60006128ed602383612e7c565b91506128f8826132c1565b604082019050919050565b6000612910601783612e7c565b915061291b82613310565b602082019050919050565b6000612933602283612e7c565b915061293e82613339565b604082019050919050565b6000612956602283612e7c565b915061296182613388565b604082019050919050565b6000612979602683612e7c565b9150612984826133d7565b604082019050919050565b600061299c603983612e7c565b91506129a782613426565b604082019050919050565b60006129bf602883612e7c565b91506129ca82613475565b604082019050919050565b60006129e2602583612e7c565b91506129ed826134c4565b604082019050919050565b6000612a05602183612e7c565b9150612a1082613513565b604082019050919050565b6000612a28603483612e7c565b9150612a3382613562565b604082019050919050565b6000612a4b602583612e7c565b9150612a56826135b1565b604082019050919050565b6000612a6e602483612e7c565b9150612a7982613600565b604082019050919050565b6000612a91602883612e7c565b9150612a9c8261364f565b604082019050919050565b6000612ab4602583612e7c565b9150612abf8261369e565b604082019050919050565b6000612ad7601f83612e7c565b9150612ae2826136ed565b602082019050919050565b612af681613151565b82525050565b612b058161315b565b82525050565b6000602082019050612b206000830184612889565b92915050565b6000606082019050612b3b6000830186612889565b612b486020830185612889565b612b556040830184612aed565b949350505050565b6000604082019050612b726000830185612889565b612b7f6020830184612aed565b9392505050565b6000602082019050612b9b6000830184612898565b92915050565b60006020820190508181036000830152612bbb81846128a7565b905092915050565b60006020820190508181036000830152612bdc816128e0565b9050919050565b60006020820190508181036000830152612bfc81612903565b9050919050565b60006020820190508181036000830152612c1c81612926565b9050919050565b60006020820190508181036000830152612c3c81612949565b9050919050565b60006020820190508181036000830152612c5c8161296c565b9050919050565b60006020820190508181036000830152612c7c8161298f565b9050919050565b60006020820190508181036000830152612c9c816129b2565b9050919050565b60006020820190508181036000830152612cbc816129d5565b9050919050565b60006020820190508181036000830152612cdc816129f8565b9050919050565b60006020820190508181036000830152612cfc81612a1b565b9050919050565b60006020820190508181036000830152612d1c81612a3e565b9050919050565b60006020820190508181036000830152612d3c81612a61565b9050919050565b60006020820190508181036000830152612d5c81612a84565b9050919050565b60006020820190508181036000830152612d7c81612aa7565b9050919050565b60006020820190508181036000830152612d9c81612aca565b9050919050565b6000602082019050612db86000830184612aed565b92915050565b6000608082019050612dd36000830187612aed565b612de06020830186612aed565b612ded6040830185612aed565b612dfa6060830184612aed565b95945050505050565b600060a082019050612e186000830188612aed565b612e256020830187612aed565b612e326040830186612aed565b612e3f6060830185612aed565b612e4c6080830184612aed565b9695505050505050565b6000602082019050612e6b6000830184612afc565b92915050565b600081519050919050565b600082825260208201905092915050565b6000612e9882613151565b9150612ea383613151565b9250827fffffffffffffffffffffffffffffffffffffffffffffffffffffffffffffffff03821115612ed857612ed7613216565b5b828201905092915050565b6000612eee82613151565b9150612ef983613151565b925082612f0957612f08613245565b5b828204905092915050565b6000808291508390505b6001851115612f5e57808604811115612f3a57612f39613216565b5b6001851615612f495780820291505b8081029050612f57856132b4565b9450612f1e565b94509492505050565b6000612f7282613151565b9150612f7d8361315b565b9250612faa7fffffffffffffffffffffffffffffffffffffffffffffffffffffffffffffffff8484612fb2565b905092915050565b600082612fc2576001905061307e565b81612fd0576000905061307e565b8160018114612fe65760028114612ff05761301f565b600191505061307e565b60ff84111561300257613001613216565b5b8360020a91508482111561301957613018613216565b5b5061307e565b5060208310610133831016604e8410600b84101617156130545782820a90508381111561304f5761304e613216565b5b61307e565b6130618484846001612f14565b9250905081840481111561307857613077613216565b5b81810290505b9392505050565b600061309082613151565b915061309b83613151565b9250817fffffffffffffffffffffffffffffffffffffffffffffffffffffffffffffffff04831182151516156130d4576130d3613216565b5b828202905092915050565b60006130ea82613151565b91506130f583613151565b92508282101561310857613107613216565b5b828203905092915050565b600061311e82613131565b9050919050565b60008115159050919050565b600073ffffffffffffffffffffffffffffffffffffffff82169050919050565b6000819050919050565b600060ff82169050919050565b60005b8381101561318657808201518184015260208101905061316b565b83811115613195576000848401525b50505050565b600060028204905060018216806131b357607f821691505b602082108114156131c7576131c6613274565b5b50919050565b60006131d882613151565b91507fffffffffffffffffffffffffffffffffffffffffffffffffffffffffffffffff82141561320b5761320a613216565b5b600182019050919050565b7f4e487b7100000000000000000000000000000000000000000000000000000000600052601160045260246000fd5b7f4e487b7100000000000000000000000000000000000000000000000000000000600052601260045260246000fd5b7f4e487b7100000000000000000000000000000000000000000000000000000000600052602260045260246000fd5b6000601f19601f8301169050919050565b60008160011c9050919050565b7f45524332303a207472616e7366657220746f20746865207a65726f206164647260008201527f6573730000000000000000000000000000000000000000000000000000000000602082015250565b7f496e73756666696369656e74207374616b656420564c52000000000000000000600082015250565b7f45524332303a206275726e20616d6f756e7420657863656564732062616c616e60008201527f6365000000000000000000000000000000000000000000000000000000000000602082015250565b7f45524332303a20617070726f766520746f20746865207a65726f20616464726560008201527f7373000000000000000000000000000000000000000000000000000000000000602082015250565b7f45524332303a207472616e7366657220616d6f756e742065786365656473206260008201527f616c616e63650000000000000000000000000000000000000000000000000000602082015250565b7f4f6e6c792064657369676e61746564206469737472696275746f722063616e2060008201527f6d616b652072657761726420646973747269627574696f6e7300000000000000602082015250565b7f45524332303a207472616e7366657220616d6f756e742065786365656473206160008201527f6c6c6f77616e6365000000000000000000000000000000000000000000000000602082015250565b7f496e73756666696369656e7420656e746572707269736520746f6b656e20626160008201527f6c616e6365000000000000000000000000000000000000000000000000000000602082015250565b7f45524332303a206275726e2066726f6d20746865207a65726f2061646472657360008201527f7300000000000000000000000000000000000000000000000000000000000000602082015250565b7f4f6e6c79207468652063757272656e74206469737472696275746f722063616e60008201527f206368616e676520746869732061646472657373000000000000000000000000602082015250565b7f45524332303a207472616e736665722066726f6d20746865207a65726f20616460008201527f6472657373000000000000000000000000000000000000000000000000000000602082015250565b7f45524332303a20617070726f76652066726f6d20746865207a65726f2061646460008201527f7265737300000000000000000000000000000000000000000000000000000000602082015250565b7f43616e6e6f742064697374726962757465206d6f726520746f6b656e7320746860008201527f616e206f776e6564000000000000000000000000000000000000000000000000602082015250565b7f45524332303a2064656372656173656420616c6c6f77616e63652062656c6f7760008201527f207a65726f000000000000000000000000000000000000000000000000000000602082015250565b7f45524332303a206d696e7420746f20746865207a65726f206164647265737300600082015250565b61371f81613113565b811461372a57600080fd5b50565b61373681613125565b811461374157600080fd5b50565b61374d81613151565b811461375857600080fd5b5056fea2646970667358221220cf17817d4955434856af4b3879eeb91384d0cc4c5e3f5203886cc82ee7abb60364736f6c63430008040033",
  "devdoc": {
    "kind": "dev",
    "methods": {
      "allowance(address,address)": {
        "details": "See {IERC20-allowance}."
      },
      "approve(address,uint256)": {
        "details": "See {IERC20-approve}. Requirements: - `spender` cannot be the zero address."
      },
      "balanceOf(address)": {
        "details": "See {IERC20-balanceOf}."
      },
      "decimals()": {
        "details": "Returns the number of decimals used to get its user representation. For example, if `decimals` equals `2`, a balance of `505` tokens should be displayed to a user as `5.05` (`505 / 10 ** 2`). Tokens usually opt for a value of 18, imitating the relationship between Ether and Wei. This is the value {ERC20} uses, unless this function is overridden; NOTE: This information is only used for _display_ purposes: it in no way affects any of the arithmetic of the contract, including {IERC20-balanceOf} and {IERC20-transfer}."
      },
      "decreaseAllowance(address,uint256)": {
        "details": "Atomically decreases the allowance granted to `spender` by the caller. This is an alternative to {approve} that can be used as a mitigation for problems described in {IERC20-approve}. Emits an {Approval} event indicating the updated allowance. Requirements: - `spender` cannot be the zero address. - `spender` must have allowance for the caller of at least `subtractedValue`."
      },
      "increaseAllowance(address,uint256)": {
        "details": "Atomically increases the allowance granted to `spender` by the caller. This is an alternative to {approve} that can be used as a mitigation for problems described in {IERC20-approve}. Emits an {Approval} event indicating the updated allowance. Requirements: - `spender` cannot be the zero address."
      },
      "name()": {
        "details": "Returns the name of the token."
      },
      "symbol()": {
        "details": "Returns the symbol of the token, usually a shorter version of the name."
      },
      "totalSupply()": {
        "details": "See {IERC20-totalSupply}."
      },
      "transfer(address,uint256)": {
        "details": "See {IERC20-transfer}. Requirements: - `recipient` cannot be the zero address. - the caller must have a balance of at least `amount`."
      },
      "transferFrom(address,address,uint256)": {
        "details": "See {IERC20-transferFrom}. Emits an {Approval} event indicating the updated allowance. This is not required by the EIP. See the note at the beginning of {ERC20}. Requirements: - `sender` and `recipient` cannot be the zero address. - `sender` must have a balance of at least `amount`. - the caller must have allowance for ``sender``'s tokens of at least `amount`."
      }
    },
    "version": 1
  },
  "userdoc": {
    "kind": "user",
    "methods": {},
    "version": 1
  },
  "storageLayout": {
    "storage": [
      {
        "astId": 15,
        "contract": "contracts/EvlrStaker.sol:EvlrStaker",
        "label": "_balances",
        "offset": 0,
        "slot": "0",
        "type": "t_mapping(t_address,t_uint256)"
      },
      {
        "astId": 21,
        "contract": "contracts/EvlrStaker.sol:EvlrStaker",
        "label": "_allowances",
        "offset": 0,
        "slot": "1",
        "type": "t_mapping(t_address,t_mapping(t_address,t_uint256))"
      },
      {
        "astId": 23,
        "contract": "contracts/EvlrStaker.sol:EvlrStaker",
        "label": "_totalSupply",
        "offset": 0,
        "slot": "2",
        "type": "t_uint256"
      },
      {
        "astId": 25,
        "contract": "contracts/EvlrStaker.sol:EvlrStaker",
        "label": "_name",
        "offset": 0,
        "slot": "3",
        "type": "t_string_storage"
      },
      {
        "astId": 27,
        "contract": "contracts/EvlrStaker.sol:EvlrStaker",
        "label": "_symbol",
        "offset": 0,
        "slot": "4",
        "type": "t_string_storage"
      },
      {
        "astId": 682,
        "contract": "contracts/EvlrStaker.sol:EvlrStaker",
        "label": "eVlrContract",
        "offset": 0,
        "slot": "5",
        "type": "t_contract(ERC20)545"
      },
      {
        "astId": 686,
        "contract": "contracts/EvlrStaker.sol:EvlrStaker",
        "label": "stakes",
        "offset": 0,
        "slot": "6",
        "type": "t_array(t_struct(StakerBag)766_storage)dyn_storage"
      },
      {
        "astId": 688,
        "contract": "contracts/EvlrStaker.sol:EvlrStaker",
        "label": "charityBagAddress",
        "offset": 0,
        "slot": "7",
        "type": "t_address"
      },
      {
        "astId": 690,
        "contract": "contracts/EvlrStaker.sol:EvlrStaker",
        "label": "distributor",
        "offset": 0,
        "slot": "8",
        "type": "t_address"
      },
      {
        "astId": 692,
        "contract": "contracts/EvlrStaker.sol:EvlrStaker",
        "label": "stakingRewardsBag",
        "offset": 0,
        "slot": "9",
        "type": "t_uint256"
      },
      {
        "astId": 695,
        "contract": "contracts/EvlrStaker.sol:EvlrStaker",
        "label": "burnAddress",
        "offset": 0,
        "slot": "10",
        "type": "t_address"
      },
      {
        "astId": 697,
        "contract": "contracts/EvlrStaker.sol:EvlrStaker",
        "label": "stakingFee",
        "offset": 0,
        "slot": "11",
        "type": "t_uint256"
      },
      {
        "astId": 699,
        "contract": "contracts/EvlrStaker.sol:EvlrStaker",
        "label": "charityFee",
        "offset": 0,
        "slot": "12",
        "type": "t_uint256"
      },
      {
        "astId": 701,
        "contract": "contracts/EvlrStaker.sol:EvlrStaker",
        "label": "burnFee",
        "offset": 0,
        "slot": "13",
        "type": "t_uint256"
      },
      {
        "astId": 703,
        "contract": "contracts/EvlrStaker.sol:EvlrStaker",
        "label": "totalCharityCollected",
        "offset": 0,
        "slot": "14",
        "type": "t_uint256"
      }
    ],
    "types": {
      "t_address": {
        "encoding": "inplace",
        "label": "address",
        "numberOfBytes": "20"
      },
      "t_array(t_struct(StakerBag)766_storage)dyn_storage": {
        "base": "t_struct(StakerBag)766_storage",
        "encoding": "dynamic_array",
        "label": "struct EvlrStaker.StakerBag[]",
        "numberOfBytes": "32"
      },
      "t_contract(ERC20)545": {
        "encoding": "inplace",
        "label": "contract ERC20",
        "numberOfBytes": "20"
      },
      "t_mapping(t_address,t_mapping(t_address,t_uint256))": {
        "encoding": "mapping",
        "key": "t_address",
        "label": "mapping(address => mapping(address => uint256))",
        "numberOfBytes": "32",
        "value": "t_mapping(t_address,t_uint256)"
      },
      "t_mapping(t_address,t_uint256)": {
        "encoding": "mapping",
        "key": "t_address",
        "label": "mapping(address => uint256)",
        "numberOfBytes": "32",
        "value": "t_uint256"
      },
      "t_string_storage": {
        "encoding": "bytes",
        "label": "string",
        "numberOfBytes": "32"
      },
      "t_struct(StakerBag)766_storage": {
        "encoding": "inplace",
        "label": "struct EvlrStaker.StakerBag",
        "members": [
          {
            "astId": 759,
            "contract": "contracts/EvlrStaker.sol:EvlrStaker",
            "label": "startTime",
            "offset": 0,
            "slot": "0",
            "type": "t_uint256"
          },
          {
            "astId": 761,
            "contract": "contracts/EvlrStaker.sol:EvlrStaker",
            "label": "stopTime",
            "offset": 0,
            "slot": "1",
            "type": "t_uint256"
          },
          {
            "astId": 763,
            "contract": "contracts/EvlrStaker.sol:EvlrStaker",
            "label": "stakedTokens",
            "offset": 0,
            "slot": "2",
            "type": "t_uint256"
          },
          {
            "astId": 765,
            "contract": "contracts/EvlrStaker.sol:EvlrStaker",
            "label": "ownerAddress",
            "offset": 0,
            "slot": "3",
            "type": "t_address"
          }
        ],
        "numberOfBytes": "128"
      },
      "t_uint256": {
        "encoding": "inplace",
        "label": "uint256",
        "numberOfBytes": "32"
      }
    }
  }
}